:1000000003308A00512B0000FF00030E8301A10082
:100010000A08A0008A010408A2007708A300780853
:10002000A4007908A5007A08A600831383128C30F7
:100030008400801E1D288C1A2E2822088400230884
:10004000F7002408F8002508F9002608FA0020081F
:100050008A00210E8300FF0E7F0E09008A110A120A
:10006000FB290A108A100A11820728340C34013443
:100070000634201020102010C322D4242010201079
:1000800020100A1020102010C327CC27CD27531092
:1000900020102000D4234F17A0224E10C3274E2A31
:1000A000D2274C108A20552ACF26412AC9214F1029
:1000B0004510492753002010A022CC22432AD227E2
:1000C000CE24C32020100A1020102022C923492A40
:1000D0004126202B20102000C420D6244410CD20FF
:1000E00044294922201020102005B11B3118301955
:1000F000B018201020102010201020102010000117
:10010000C822432A4F292029D5245A102010201014
:100110008A18B7183018321C371020102010201001
:1001200020102000C320CD2043244F10CD20D42008
:10013000201020102005B11B31183018B51B2010DD
:1001400020102010201020005029C12154103118F7
:10015000A021CF26A02945298A24412620214922F1
:100160004929C521C3244F27412600008810F030BB
:100170008316880083120815000008140000080880
:10018000080E0F39DA0008100000081400000808F3
:10019000080E0F39D900081000308316880083122A
:1001A0005A0EF700F030F70577085904F800780880
:1001B000D900D91BB728571C88105718881400007D
:1001C000081100000810580ED9000F30D905590841
:1001D000DA005A0EF039F7000F300805770488006E
:1001E00000000814F328081058080F39D9005908DE
:1001F000DA005A0EF039F7000F300805770488004E
:1002000000000814032908100800540B08290B29C2
:100210004030D5000C29D50101305302D5075508CF
:100220008038D600D7015608D800B62008005330D1
:1002300084008313000803192B290130F800F7010B
:10024000F70B2029F80B1F294A30F700F70B262956
:100250002929800B1D29080052080C3A0319372957
:10026000063A03193F29023A031945294A29D701B9
:100270000130D800B6200230D300172150290130B8
:10028000D3000230D40005215029D7011030D80006
:10029000B62050290130D7005208D800B620502986
:1002A0000800831603178C170C14000000000318B5
:1002B000802983120C087F390313CF0003170D0820
:1002C0000313D00003170F080313D1004F08D20007
:1002D0002C21500803178D000313510803178F00BA
:1002E00083168C170C140000000083120313CE0B2E
:1002F0007A297D298316031780299F2983160317DE
:1003000083120C0D0E0D7F390313CF0003170D0858
:100310000313D00003170F080313D1004F08D200B6
:100320002C21500803178D000313510803178F0069
:100330008D0A03198F0A03100313CE0B51290800ED
:1003400078084E08D0006430D1005108F8015002FE
:100350000318AD295008F700B929F7010830D20079
:10036000D00DF70D510877020318F700F80DD20BE6
:10037000B0297708CE0078083030031DC629CF1C7D
:10038000CD29CF19CD294F1A2030C929CF114F12AD
:100390004F14F8077808D2002C214E08D0000A30FC
:1003A000D1005108F80150020318D9295008F7006C
:1003B000E529F7010830D200D00DF70D510877027A
:1003C0000318F700F80DD20BDC297708CE00780867
:1003D0003030031DF129CF19F5294F1CF5294F1A8B
:1003E0002030F8077808D2002C213030CE074E0894
:1003F000D2002C2108008C1EFB291A08AE00013007
:10040000D300D4000521293003178D0002308F005E
:1004100003101A300313CE0051212E08CE001B30DA
:10042000CF00A021373003178D0002308F0003105A
:1004300006300313CE0051210830CE00FA30D3002D
:100440001721CE0B1E2A0130A8008C128A110A1225
:100450001D28D222C324C2244527C427202B41268D
:100460004F290A102010201020103D10A53A20100E
:100470002010201000005029C529C927CE20A02017
:10048000CC23552741100A1020102010D4224326D7
:1004900041102010201020002010201020102010CB
:1004A00020102010201020100A10201020102010E2
:1004B000201020102010201020004527D62441278E
:1004C000C427202B41264F29A01E0A1020102010DF
:1004D0002010A012751020102010201000012010F4
:1004E0005526D424CD20202AC521CC2020100A1046
:1004F0005029C529C927CE20C420A01EA0127510DE
:10050000000000308316880083128810081108103C
:10051000A7018B1BA7178B130F30D3001721A71B25
:100520008B170130C0004008033C031CAF2A033086
:10053000DA005A0EF039F7000F300805770488000A
:1005400000000814A32A0810A7018B1BA7178B1300
:100550000530D3001721A71B8B17C00A932A02303E
:10056000DA005A0EF039F7000F30080577048800DA
:1005700000000814BB2A0810C0014008033C031CFB
:10058000D02A40083120C100A7018B1BA7178B136D
:10059000D7014108D800B620A71B8B17C00ABD2A77
:1005A0008A110A129E2B831603178C170C14000055
:1005B000000083120C087F390319232B0313C0009A
:1005C00003170D080313C10003170F080313C2001C
:1005D000A7018B1BA7178B134008D2002C21A71B48
:1005E0008B17410803178D000313420803178F0070
:1005F00083168C170C140000000083120C0D0E0DD6
:100600007F390319232B0313C00003170D080313AD
:10061000C10003170F080313C200A7018B1BA71704
:100620008B134008D2002C21A71B8B1741080317FE
:100630008D000313420803178F008D0A03198F0AD8
:100640000313D32A031703130800EF30AB00AC01E8
:10065000A9012908033C031C4E2B0310AB0C050811
:10066000F039C0002B080F39C00440088500851FF1
:100670004E2BAC0A051F4E2BAC0A851E4E2BAC0A26
:10068000051E4E2BAC0AA7018B1BA7178B1314302A
:10069000D3001721A71B8B17A90A292B8A110A122D
:1006A000922C840183131F3083058316031787114F
:1006B000193003139900A6309800903083129800E7
:1006C000A801A901AA01AB01AC01AD018316031772
:1006D0000908C039890003131F129F120030031745
:1006E0008800831287018801890101300313B0005B
:1006F0000230B1000330B2006430B3000430B40003
:100700000530B5000630B6006430B7000730B800D9
:100710000830B9000930BA006430BB00C830BC00F2
:10072000BD016530BE006430BF00F0308316850027
:1007300083120508F039C0008500812AC0308B047F
:1007400083168C168312A7018B1BA7178B130130FE
:10075000D300D4000521A71B8B17393003178D0058
:1007600000308F000313D3220230C000A7018B1B7F
:10077000A7178B13FA30D3001721A71B8B17C00BB9
:10078000B62BA7018B1BA7178B130130D300D40006
:100790000521A71B8B174A3003178D0000308F00EF
:1007A0000313D3220230C000A7018B1BA7178B13A2
:1007B000FA30D3001721A71B8B17C00BD42BA7012E
:1007C0008B1BA7178B130130D300D4000521A71B67
:1007D0008B175B3003178D0000308F000313D3227B
:1007E0000230C000A7018B1BA7178B13FA30D30070
:1007F0001721A71B8B17C00BF22BAA012A08023C5A
:10080000031C4D2C2A0803190C2C013A03191E2C29
:10081000033A0319302C422CA7018B1BA7178B130B
:100820000130D300D4000521A71B8B176C300317B0
:100830008D0000308F000313D322422CA7018B1BA5
:10084000A7178B130130D300D4000521A71B8B17EA
:10085000803003178D0000308F000313D322422C09
:10086000A7018B1BA7178B130130D300D4000521E0
:10087000A71B8B17923003178D0000308F000313D6
:10088000D322422CA7018B1BA7178B13C830D30090
:100890001721A71B8B17AA0AFE2BA7018B1BA717D3
:1008A0008B130130D300D4000521A71B8B17A43074
:1008B00003178D0000308F000313D3220230C000D5
:1008C000A7018B1BA7178B13FA30D3001721A71B87
:1008D0008B17C00B602CA7018B1BA7178B13013044
:1008E000D300D4000521A71B8B173B3003178D00C5
:1008F00002308F000313D322280B912CA7018B1BEE
:10090000A7178B130130D300D4000521A71B8B1729
:100910004C3003178D0002308F000313D322A8013F
:100920007C2C252B2C080F3C031CEC2C0130AD003B
:1009300030302C07840083130008093C031CEC2C86
:1009400030302C07840083130008AF00A7018B1BF5
:10095000A7178B130130D300D4000521A71B8B17D9
:100960005D3003178D0002308F0003100313A701C1
:100970008B1BA7178B131930CE005121A71B8B1788
:10098000A7018B1BA7178B132F08CE001B30CF009E
:10099000A021A71B8B176A3003178D0002308F0030
:1009A00003140313A7018B1BA7178B130730CE006B
:1009B0005121A71B8B172F080C1EDC2C9900083027
:1009C000C000A7018B1BA7178B13FA30D300172188
:1009D000A71B8B17C00BE12CAD0803191D2DA70118
:1009E0008B1BA7178B130130D300D4000521A71B45
:1009F0008B176F3003178D0002308F000310031325
:100A0000A7018B1BA7178B131F30CE005121A71BEB
:100A10008B17A7018B1BA7178B132F08CE001B303A
:100A2000CF00A021A71B8B17A7018B1BA7178B1328
:0E0A30002030D2002C21A71B8B177C2C6300DA
:04400E00F420FF3E5D
:00000001FF
;PIC16F887
;CRC=6080  CREATED="26-Oct-20 22:16"
