:1000000003308A003D2B0000FF00030E8301A10096
:100010000A08A0008A010408A2007708A300780853
:10002000A4007908A5007A08A600831383128C30F7
:100030008400801E1D288C1A2E2822088400230884
:10004000F7002408F8002508F9002608FA0020081F
:100050008A00210E8300FF0E7F0E09008A110A120A
:10006000B5290A108A100A11820728340C34013489
:100070000634201020102010C322D4242010201079
:1000800020100A1020102010C327CC27CD27531092
:1000900020102000D4234F17A0224E10C3274E2A31
:1000A000D2274C108A20552ACF26412AC9214F1029
:1000B0004510492753002010A022CC22432AD227E2
:1000C000CE24C32020100A1020102022C923492A40
:1000D0004126202B20102000C420D6244410CD20FF
:1000E00044294922201020102005B11B3118301955
:1000F000B018201020102010201020102010000117
:10010000C822432A4F292029D5245A102010201014
:100110008A18B7183018321C371020102010201001
:1001200020102000C320CD2043244F10CD20D42008
:10013000201020102005B11B31183018B51B2010DD
:1001400020102010201020005029C12154103118F7
:10015000A021CF26A02945298A24412620214922F1
:100160004929C521C3244F27412600008810F030BB
:100170008316880083120815000008140000080880
:10018000080E0F39DA0008100000081400000808F3
:10019000080E0F39D900081000308316880083122A
:1001A0005A0EF700F030F70577085904F800780880
:1001B000D900D91BB728571C88105718881400007D
:1001C000081100000810580ED9000F30D905590841
:1001D000DA005A0EF039F7000F300805770488006E
:1001E00000000814F328081058080F39D9005908DE
:1001F000DA005A0EF039F7000F300805770488004E
:1002000000000814032908100800540B08290B29C2
:100210004030D5000C29D50101305302D5075508CF
:100220008038D600D7015608D800B62008005330D1
:1002300084008313000803192B290130F800F7010B
:10024000F70B2029F80B1F294A30F700F70B262956
:100250002929800B1D29080052080C3A0319372957
:10026000063A03193F29023A031945294A29D701B9
:100270000130D800B6200230D300172150290130B8
:10028000D3000230D40005215029D7011030D80006
:10029000B62050290130D7005208D800B620502986
:1002A0000800831603178C170C14000000000318B5
:1002B000802983120C087F390313CF0003170D0820
:1002C0000313D00003170F080313D1004F08D20007
:1002D0002C21500803178D000313510803178F00BA
:1002E00083168C170C140000000083120313CE0B2E
:1002F0007A297D298316031780299F2983160317DE
:1003000083120C0D0E0D7F390313CF0003170D0858
:100310000313D00003170F080313D1004F08D200B6
:100320002C21500803178D000313510803178F0069
:100330008D0A03198F0A03100313CE0B51290800ED
:100340005108F80150020318A8295008F700B429F1
:10035000F7010830D200D00DF70D510877020318CD
:10036000F700F80DD20BAB2908008C1EB5291A082E
:10037000AE000130D300D4000521153003178D00E5
:1003800002308F0003101A300313CE0051212E08C3
:10039000CE001B30CF004E08D0006430D100A02129
:1003A0007708CE0078083030031DDD29CF1CE42902
:1003B000CF19E4294F1A2030E029CF114F124F14E2
:1003C000F8077808D2002C214E08D0000A30D1005E
:1003D000A0217708CE0078083030031DF529CF1909
:1003E000F9294F1CF9294F1A2030F8077808D20054
:1003F0002C213030CE074E08D2002C212330031799
:100400008D0002308F00031006300313CE005121FF
:100410000830CE00FA30D3001721CE0B0A2A013063
:10042000A8008C128A110A121D28D222C324C224C9
:100430004527C427202B41264F290A1020102010C1
:1004400020103D10A53A2010201020100000502947
:10045000C529C927CE20A020CC23552741100A103A
:1004600020102010D42243264110201020102000FC
:1004700020102010201020102010201020102010FC
:100480000A10201020102010201020102010201002
:1004900020004527D6244127C427202B41264F2959
:1004A000A01E0A10201020102010A012631020108F
:1004B00020102010000120105526D424CD20202A01
:1004C000C521CC2020100A105029C529C927CE20CB
:1004D000C420A01EA0126310000000308316880004
:1004E0008312881008110810A7018B1BA7178B1304
:1004F0000F30D3001721A71B8B170130C000400815
:10050000033C031C9B2A0330DA005A0EF039F70033
:100510000F30080577048800000008148F2A08109F
:10052000A7018B1BA7178B130530D3001721A71B1F
:100530008B17C00A7F2A0230DA005A0EF039F70012
:100540000F3008057704880000000814A72A081057
:10055000C0014008033C031CBC2A40083120C100F4
:10056000A7018B1BA7178B13D7014108D800B62012
:10057000A71B8B17C00AA92A8A110A128C2B831673
:1005800003178C170C140000000083120C087F392D
:1005900003190F2B0313C00003170D080313C10029
:1005A00003170F080313C200A7018B1BA7178B1398
:1005B0004008D2002C21A71B8B17410803178D0080
:1005C0000313420803178F0083168C170C140000C6
:1005D000000083120C0D0E0D7F3903190F2B03132E
:1005E000C00003170D080313C10003170F080313FE
:1005F000C200A7018B1BA7178B134008D2002C2128
:10060000A71B8B17410803178D000313420803171C
:100610008F008D0A03198F0A0313BF2A03170313D0
:100620000800EF30AB00AC01A9012908033C031C12
:100630003A2B0310AB0C0508F039C0002B080F391A
:10064000C00440088500851F3A2BAC0A051F3A2BD1
:10065000AC0A851E3A2BAC0A051E3A2BAC0AA70140
:100660008B1BA7178B131430D3001721A71B8B17D5
:10067000A90A152B8A110A12802C840183131F30BA
:100680008305831603178711193003139900A630C9
:100690009800903083129800A801A901AA01AB012B
:1006A000AC01AD01AE01831603170908C0398900FA
:1006B00003131F129F120030031788008312870153
:1006C0008801890131300313B0003230B10033307A
:1006D000B2004130B3003430B4003530B5003630AC
:1006E000B6004230B7003730B8003830B900393082
:1006F000BA004330BB002A30BC003030BD0023308C
:10070000BE004430BF00F030831685008312050818
:10071000F039C00085006D2AC0308B0483168C161A
:100720008312A7018B1BA7178B130130D300D400B2
:100730000521A71B8B17393003178D0000308F0060
:100740000313BF220230C000A7018B1BA7178B1316
:10075000FA30D3001721A71B8B17C00BA42BA701BE
:100760008B1BA7178B130130D300D4000521A71BC7
:100770008B174A3003178D0000308F000313BF2200
:100780000230C000A7018B1BA7178B13FA30D300D0
:100790001721A71B8B17C00BC22BA7018B1BA717F9
:1007A0008B130130D300D4000521A71B8B175B30BE
:1007B00003178D0000308F000313BF220230C000EA
:1007C000A7018B1BA7178B13FA30D3001721A71B88
:1007D0008B17C00BE02BAA012A08023C031C3B2C00
:1007E0002A080319FA2B013A03190C2C033A0319AE
:1007F0001E2C302CA7018B1BA7178B130130D300A5
:10080000D4000521A71B8B176C3003178D00003017
:100810008F000313BF22302CA7018B1BA7178B134C
:100820000130D300D4000521A71B8B17803003179C
:100830008D0000308F000313BF22302CA7018B1BCB
:10084000A7178B130130D300D4000521A71B8B17EA
:10085000923003178D0000308F000313BF22302C1D
:10086000A7018B1BA7178B13C830D3001721A71B19
:100870008B17AA0AEC2BA7018B1BA7178B13013030
:10088000D300D4000521A71B8B17A43003178D00BC
:1008900000308F000313BF220230C000A7018B1B62
:1008A000A7178B13FA30D3001721A71B8B17C00B88
:1008B0004E2CA7018B1BA7178B130130D300D4003C
:1008C0000521A71B8B17273003178D0002308F00DF
:1008D0000313BF22280B7F2CA7018B1BA7178B1399
:1008E0000130D300D4000521A71B8B173830031724
:1008F0008D0002308F000313BF22A8016A2C112B38
:100900002C080F3C031CD02C0130AD0030302C07DC
:10091000840083130008AF00A7018B1BA7178B135C
:100920000130D300D4000521A71B8B1749300317D2
:100930008D0002308F0003100313A7018B1BA71734
:100940008B131930CE005121A71B8B17A7018B1BCE
:10095000A7178B132F08D2002C21A71B8B175630FB
:1009600003178D0002308F0003140313A7018B1BA4
:10097000A7178B130730CE005121A71B8B172F0809
:100980000C1EC02C99000830C000A7018B1BA717B4
:100990008B13FA30D3001721A71B8B17C00BC52C64
:1009A000AD080319FF2CA7018B1BA7178B13013070
:1009B000D300D4000521A71B8B175B3003178D00D4
:1009C00002308F0003100313A7018B1BA7178B1393
:1009D0001F30CE005121A71B8B17A7018B1BA71718
:1009E0008B132F08D2002C21A71B8B17A7018B1B61
:1009F000A7178B132030D2002C21A71B8B176A2C32
:020A0000630091
:04400E00F420FF3E5D
:00000001FF
;PIC16F887
;CRC=0B3C  CREATED="27-Oct-20 17:14"
