:1000000003308A00402B0000FF00030E8301A10093
:100010000A08A0008A010408A2007708A300780853
:10002000A4007908A5007A08A600831383128C30F7
:100030008400801E1D288C1A2E2822088400230884
:10004000F7002408F8002508F9002608FA0020081F
:100050008A00210E8300FF0E7F0E09008A110A120A
:100060000F2A0A108A100A11820728340C3401342E
:100070000634201020102010C322D4242010201079
:1000800020100A1020102010C327CC27CD27531092
:1000900020102000D4234F17A0224E10C3274E2A31
:1000A000D2274C108A20552ACF26412AC9214F1029
:1000B0004510492753002010A022CC22432AD227E2
:1000C000CE24C32020100A1020102022C923492A40
:1000D0004126202B20102000C420D6244410CD20FF
:1000E00044294922201020102005B11B3118301955
:1000F000B018201020102010201020102010000117
:10010000C822432A4F292029D5245A102010201014
:100110008A18B7183018321C371020102010201001
:1001200020102000C320CD2043244F10CD20D42008
:10013000201020102005B11B31183018B51B2010DD
:1001400020102010201020005029C12154103118F7
:10015000A021CF26A02945298A24412620214922F1
:100160004929C521C3244F2741260000D620CC278A
:100170005210412243103D10A53A201020102010AB
:1001800020052010201020102010201020102010FA
:10019000201000008810F0308316880083120815A4
:1001A0000000081400000808080E0F39C6000810E7
:1001B0000000081400000808080E0F39C5000810D8
:1001C0000030831688008312460EF700F030F705E2
:1001D00077084504F8007808C500C51BCB28431CE8
:1001E0008810431888140000081100000810440EFD
:1001F000C5000F30C5054508C600460EF039F700AA
:100200000F3008057704880000000814072908103B
:1002100044080F39C5004508C600460EF039F700FE
:100220000F3008057704880000000814172908100B
:100230000800400B1C291F294030C1002029C101A2
:1002400001303F02C10741088038C200C3014208A3
:10025000C400CA2008003F3084008313000803193B
:100260003F290130F800F701F70B3429F80B332947
:100270004A30F700F70B3A293D29800B3129080055
:100280003E080C3A03194B29063A03195329023A3E
:10029000031959295E29C3010130C400CA20023064
:1002A000BF002B2164290130BF000230C00019219A
:1002B0006429C3011030C400CA2064290130C3007E
:1002C0003E08C400CA2064290800831603178C174F
:1002D0000C14000000000318942983120C087F39C5
:1002E0000313BB0003170D080313BC0003170F080B
:1002F0000313BD003B08BE0040213C0803178D00DE
:1003000003133D0803178F0083168C170C1400008D
:10031000000083120313BA0B8E2991298316031749
:100320009429B3298316031783120C0D0E0D7F3900
:100330000313BB0003170D080313BC0003170F08BA
:100340000313BD003B08BE0040213C0803178D008D
:1003500003133D0803178F008D0A03198F0A03103A
:100360000313BA0B6529080078083A08BC0064300A
:10037000BD003D08F8013C020318C1293C08F70004
:10038000CD29F7010830BE00BC0DF70D3D087702FE
:100390000318F700F80DBE0BC4297708BA007808D7
:1003A0003030031DDA29BB1CE129BB19E1293B1AB6
:1003B0002030DD29BB113B123B14F8077808BE0042
:1003C00040213A08BC000A30BD003D08F8013C025B
:1003D0000318ED293C08F700F929F7010830BE00A1
:1003E000BC0DF70D3D0877020318F700F80DBE0BA2
:1003F000F0297708BA0078083030031D052ABB19A8
:10040000092A3B1C092A3B1A2030F8077808BE004D
:1004100040213030BA073A08BE00402108008C1E47
:100420000F2A1A08A9000130BF00C00019213B3073
:1004300003178D0002308F0003101A300313BA0027
:1004400065212908BA001B30BB00B42149300317CD
:100450008D0002308F00031006300313BA006521AF
:100460000830BA00FA30BF002B21BA0B322A8C12A6
:100470008A110A121D28D222C324C2244527C42768
:10048000202B41264F290A102010201020103D104B
:10049000A53A20102010201000004527D62441271F
:1004A000C427202B41264F29A01E0A1020102010FF
:1004B0002010A01275102010201020100000003015
:1004C000831688008312881008110810A7018B1B5F
:1004D000A7178B130F30BF002B21A71B8B170130E1
:1004E000AC002C08033C031C8D2A0330C600460ECA
:1004F000F039F7000F300805770488000000081471
:10050000812A0810A7018B1BA7178B130530BF008A
:100510002B21A71B8B17AC0A712A0230C600460E8E
:10052000F039F7000F300805770488000000081440
:10053000992A0810AC012C08033C031CAE2A2C0895
:100540003120AD00A7018B1BA7178B13C3012D080A
:10055000C400CA20A71B8B17AC0A9B2A8A110A1257
:10056000682B831603178C170C14000000008312ED
:100570000C087F390319012B0313AC0003170D0876
:100580000313AD0003170F080313AE00A7018B1B65
:10059000A7178B132C08BE004021A71B8B172D0813
:1005A00003178D0003132E0803178F0083168C1773
:1005B0000C140000000083120C0D0E0D7F3903197E
:1005C000012B0313AC0003170D080313AD00031731
:1005D0000F080313AE00A7018B1BA7178B132C0862
:1005E000BE004021A71B8B172D0803178D00031396
:1005F0002E0803178F008D0A03198F0A0313B12ADF
:100600000317031308009F149F18042B1E08AB0048
:10061000A7018B1BA7178B130130BF00C000192146
:10062000A71B8B17B63003178D0000308F00031007
:100630000313A7018B1BA7178B130C30BA0065217E
:10064000A71B8B17A7018B1BA7178B132B08BA00AF
:100650001B30BB00B421A71B8B17BD3003178D00C7
:1006600000308F0003100313A7018B1BA7178B13F8
:100670001830BA006521A71B8B178A110A124E2C5D
:10068000840183131F3083058316031787111930E4
:1006900003139900A6309800903083129800A801A7
:1006A000A901AB01831603170908C0398900031398
:1006B0001F129F12003003178800831287018801E0
:1006C0008901FF30831603138500870083125F2A98
:1006D0001F179F1783169F1383121F148316031768
:1006E0000908C039890003131F129F121030031725
:1006F0008800F800831203131F08C33978049F0091
:10070000C0308B0483168C168312A7018B1BA7178E
:100710008B130130BF00C0001921A71B8B17393084
:1007200003178D0000308F000313B1220230AC009C
:10073000A7018B1BA7178B13FA30BF002B21A71B18
:100740008B17AC0B982BA7018B1BA7178B130130B2
:10075000BF00C0001921A71B8B174A3003178D005B
:1007600000308F000313B1220230AC00A7018B1BB5
:10077000A7178B13FA30BF002B21A71B8B17AC0BCD
:10078000B62BA7018B1BA7178B130130BF00C0002E
:100790001921A71B8B175B3003178D0000308F00CA
:1007A0000313B1220230AC00A7018B1BA7178B13D8
:1007B000FA30BF002B21A71B8B17AC0BD42BA80141
:1007C0002808023C031C2F2C28080319EE2B013AA1
:1007D0000319002C033A0319122C242CA7018B1B9C
:1007E000A7178B130130BF00C0001921A71B8B175F
:1007F0006C3003178D0000308F000313B122242CBE
:10080000A7018B1BA7178B130130BF00C000192154
:10081000A71B8B17803003178D0000308F00031348
:10082000B122242CA7018B1BA7178B130130BF000B
:10083000C0001921A71B8B17923003178D000030C1
:100840008F000313B122242CA7018B1BA7178B1336
:10085000C830BF002B21A71B8B17A80AE02BA701CC
:100860008B1BA7178B130130BF00C0001921A71BDA
:100870008B17A43003178D0000308F000313B122B3
:100880000230AC00A7018B1BA7178B13FA30BF00F7
:100890002B21A71B8B17AC0B422C032B851F9F2CE6
:1008A000851B502C851B9E2C2B08AA002A080C1E89
:1008B000572C9900A7018B1BA7178B130130BF0082
:1008C000C0001921A71B8B174D3003178D00023074
:1008D0008F0003100313A7018B1BA7178B1319306D
:1008E000BA006521A71B8B17A7018B1BA7178B13BA
:1008F0002A08BA001B30BB00B421A71B8B175A3043
:1009000003178D0002308F0003140313A7018B1B04
:10091000A7178B130730BA006521A71B8B17083068
:10092000AC00A7018B1BA7178B13FA30BF002B213C
:10093000A71B8B17AC0B912C9E2C522C4E2C4D2CA4
:02094000630052
:04400E00F420FF3E5D
:00000001FF
;PIC16F887
;CRC=70AE  CREATED="27-Oct-20 16:05"
